{
  "contractName": "Sharing",
  "abi": [
    {
      "constant": true,
      "inputs": [],
      "name": "numObjects",
      "outputs": [
        {
          "name": "",
          "type": "uint256"
        }
      ],
      "payable": false,
      "stateMutability": "view",
      "type": "function"
    },
    {
      "constant": true,
      "inputs": [
        {
          "name": "",
          "type": "uint256"
        }
      ],
      "name": "objects",
      "outputs": [
        {
          "name": "owner",
          "type": "address"
        },
        {
          "name": "des",
          "type": "bytes32"
        },
        {
          "name": "sta",
          "type": "uint8"
        },
        {
          "name": "price",
          "type": "uint256"
        },
        {
          "name": "deposit",
          "type": "uint256"
        },
        {
          "name": "renter",
          "type": "address"
        },
        {
          "name": "start",
          "type": "uint256"
        },
        {
          "name": "end",
          "type": "uint256"
        }
      ],
      "payable": false,
      "stateMutability": "view",
      "type": "function"
    },
    {
      "inputs": [],
      "payable": false,
      "stateMutability": "nonpayable",
      "type": "constructor"
    },
    {
      "constant": false,
      "inputs": [
        {
          "name": "_objDes",
          "type": "bytes32"
        },
        {
          "name": "_price",
          "type": "uint256"
        },
        {
          "name": "_deposit",
          "type": "uint256"
        }
      ],
      "name": "registerObject",
      "outputs": [],
      "payable": false,
      "stateMutability": "nonpayable",
      "type": "function"
    },
    {
      "constant": false,
      "inputs": [
        {
          "name": "_objId",
          "type": "uint256"
        }
      ],
      "name": "rentObject",
      "outputs": [],
      "payable": true,
      "stateMutability": "payable",
      "type": "function"
    },
    {
      "constant": false,
      "inputs": [
        {
          "name": "_objId",
          "type": "uint256"
        }
      ],
      "name": "finishSharing",
      "outputs": [],
      "payable": false,
      "stateMutability": "nonpayable",
      "type": "function"
    },
    {
      "constant": false,
      "inputs": [
        {
          "name": "_objId",
          "type": "uint256"
        }
      ],
      "name": "reclaimObject",
      "outputs": [],
      "payable": false,
      "stateMutability": "nonpayable",
      "type": "function"
    },
    {
      "constant": false,
      "inputs": [],
      "name": "settlement",
      "outputs": [],
      "payable": false,
      "stateMutability": "nonpayable",
      "type": "function"
    },
    {
      "constant": true,
      "inputs": [
        {
          "name": "_objId",
          "type": "uint256"
        }
      ],
      "name": "getObjInfo",
      "outputs": [
        {
          "name": "",
          "type": "bytes32"
        },
        {
          "name": "",
          "type": "uint256"
        },
        {
          "name": "",
          "type": "uint256"
        },
        {
          "name": "",
          "type": "uint256"
        },
        {
          "name": "",
          "type": "uint256"
        },
        {
          "name": "",
          "type": "uint256"
        }
      ],
      "payable": false,
      "stateMutability": "view",
      "type": "function"
    },
    {
      "constant": true,
      "inputs": [],
      "name": "getnumObjs",
      "outputs": [
        {
          "name": "",
          "type": "uint256"
        }
      ],
      "payable": false,
      "stateMutability": "view",
      "type": "function"
    }
  ],
  "bytecode": "0x6060604052341561000f57600080fd5b60008081905550610df4806100256000396000f300606060405260043610610099576000357c0100000000000000000000000000000000000000000000000000000000900463ffffffff16806301d76d191461009e57806304c38115146100d757806351160630146101005780635fab786614610115578063cdb330031461013e578063dabfd379146101a0578063e7dccc48146101c3578063ed175850146101e6578063efa8c897146102bc575b600080fd5b34156100a957600080fd5b6100d56004808035600019169060200190919080359060200190919080359060200190919050506102d4565b005b34156100e257600080fd5b6100ea610476565b6040518082815260200191505060405180910390f35b341561010b57600080fd5b61011361047c565b005b341561012057600080fd5b61012861071d565b6040518082815260200191505060405180910390f35b341561014957600080fd5b61015f6004808035906020019091905050610726565b604051808760001916600019168152602001868152602001858152602001848152602001838152602001828152602001965050505050505060405180910390f35b34156101ab57600080fd5b6101c160048080359060200190919050506107e6565b005b34156101ce57600080fd5b6101e460048080359060200190919050506108d9565b005b34156101f157600080fd5b6102076004808035906020019091905050610b89565b604051808973ffffffffffffffffffffffffffffffffffffffff1673ffffffffffffffffffffffffffffffffffffffff168152602001886000191660001916815260200187600281111561025757fe5b60ff1681526020018681526020018581526020018473ffffffffffffffffffffffffffffffffffffffff1673ffffffffffffffffffffffffffffffffffffffff1681526020018381526020018281526020019850505050505050505060405180910390f35b6102d26004808035906020019091905050610c1e565b005b60188202811115156102e557600080fd5b610100604051908101604052803373ffffffffffffffffffffffffffffffffffffffff168152602001846000191681526020016000600281111561032557fe5b8152602001838152602001828152602001600073ffffffffffffffffffffffffffffffffffffffff168152602001600081526020016000815250600160008060008154600101919050819055815260200190815260200160002060008201518160000160006101000a81548173ffffffffffffffffffffffffffffffffffffffff021916908373ffffffffffffffffffffffffffffffffffffffff1602179055506020820151816001019060001916905560408201518160020160006101000a81548160ff021916908360028111156103fa57fe5b0217905550606082015181600301556080820151816004015560a08201518160050160006101000a81548173ffffffffffffffffffffffffffffffffffffffff021916908373ffffffffffffffffffffffffffffffffffffffff16021790555060c0820151816006015560e08201518160070155905050505050565b60005481565b600080600191505b60005482111515610719576001600281111561049c57fe5b6001600084815260200190815260200160002060020160009054906101000a900460ff1660028111156104cb57fe5b141561070c574260016000848152602001908152602001600020600701819055506001600083815260200190815260200160002060030154603c600160008581526020019081526020016000206006015460016000868152602001908152602001600020600701540381151561053d57fe5b040290506001600083815260200190815260200160002060000160009054906101000a900473ffffffffffffffffffffffffffffffffffffffff1673ffffffffffffffffffffffffffffffffffffffff166108fc829081150290604051600060405180830381858888f1935050505015156105b757600080fd5b6001600083815260200190815260200160002060050160009054906101000a900473ffffffffffffffffffffffffffffffffffffffff1673ffffffffffffffffffffffffffffffffffffffff166108fc826001600086815260200190815260200160002060040154039081150290604051600060405180830381858888f19350505050151561064557600080fd5b60006001600084815260200190815260200160002060020160006101000a81548160ff0219169083600281111561067857fe5b021790555060006001600084815260200190815260200160002060050160006101000a81548173ffffffffffffffffffffffffffffffffffffffff021916908373ffffffffffffffffffffffffffffffffffffffff16021790555060006001600084815260200190815260200160002060060181905550600060016000848152602001908152602001600020600701819055505b8180600101925050610484565b5050565b60008054905090565b60008060008060008060016000888152602001908152602001600020600101546001600089815260200190815260200160002060020160009054906101000a900460ff16600281111561077557fe5b600160008a815260200190815260200160002060030154600160008b815260200190815260200160002060040154600160008c815260200190815260200160002060060154600160008d81526020019081526020016000206007015495509550955095509550955091939550919395565b6001600082815260200190815260200160002060000160009054906101000a900473ffffffffffffffffffffffffffffffffffffffff1673ffffffffffffffffffffffffffffffffffffffff163373ffffffffffffffffffffffffffffffffffffffff1614151561085657600080fd5b6000600281111561086357fe5b6001600083815260200190815260200160002060020160009054906101000a900460ff16600281111561089257fe5b14151561089e57600080fd5b60026001600083815260200190815260200160002060020160006101000a81548160ff021916908360028111156108d157fe5b021790555050565b60006001600083815260200190815260200160002060050160009054906101000a900473ffffffffffffffffffffffffffffffffffffffff1673ffffffffffffffffffffffffffffffffffffffff163373ffffffffffffffffffffffffffffffffffffffff1614151561094b57600080fd5b4260016000848152602001908152602001600020600701819055506001600083815260200190815260200160002060030154603c60016000858152602001908152602001600020600601546001600086815260200190815260200160002060070154038115156109b757fe5b040290506001600083815260200190815260200160002060000160009054906101000a900473ffffffffffffffffffffffffffffffffffffffff1673ffffffffffffffffffffffffffffffffffffffff166108fc829081150290604051600060405180830381858888f193505050501515610a3157600080fd5b6001600083815260200190815260200160002060050160009054906101000a900473ffffffffffffffffffffffffffffffffffffffff1673ffffffffffffffffffffffffffffffffffffffff166108fc826001600086815260200190815260200160002060040154039081150290604051600060405180830381858888f193505050501515610abf57600080fd5b60006001600084815260200190815260200160002060020160006101000a81548160ff02191690836002811115610af257fe5b021790555060006001600084815260200190815260200160002060050160006101000a81548173ffffffffffffffffffffffffffffffffffffffff021916908373ffffffffffffffffffffffffffffffffffffffff16021790555060006001600084815260200190815260200160002060060181905550600060016000848152602001908152602001600020600701819055505050565b60016020528060005260406000206000915090508060000160009054906101000a900473ffffffffffffffffffffffffffffffffffffffff16908060010154908060020160009054906101000a900460ff16908060030154908060040154908060050160009054906101000a900473ffffffffffffffffffffffffffffffffffffffff16908060060154908060070154905088565b6000806002811115610c2c57fe5b6001600084815260200190815260200160002060020160009054906101000a900460ff166002811115610c5b57fe5b141515610c6757600080fd5b60016000838152602001908152602001600020600401543410151515610c8c57600080fd5b336001600084815260200190815260200160002060050160006101000a81548173ffffffffffffffffffffffffffffffffffffffff021916908373ffffffffffffffffffffffffffffffffffffffff160217905550426001600084815260200190815260200160002060060181905550600180600084815260200190815260200160002060020160006101000a81548160ff02191690836002811115610d2e57fe5b02179055506001600083815260200190815260200160002060040154340390506001600083815260200190815260200160002060050160009054906101000a900473ffffffffffffffffffffffffffffffffffffffff1673ffffffffffffffffffffffffffffffffffffffff166108fc829081150290604051600060405180830381858888f193505050501515610dc457600080fd5b50505600a165627a7a723058209519e1db235ca137f615d5b10d2a04e9d87c5d38e3bc15c4d2a8752b323145330029",
  "source": "pragma solidity ^0.4.18;//compiler version greater or equal to 0.4.0\r\n\r\ncontract Sharing {\r\n  \r\n  //use the enum datatype to define the status of the object.\r\n  //FORRENT:the object waiting to be rent.\r\n  //RENTED:the object have been rented.\r\n  //NOTRENT:The owner does not want to rent object.\r\n  enum Status {FORRENT,RENTED,NOTRENT}\r\n  \r\n  //use the struct datatype to store the object information\r\n  struct Object {\r\n    address owner; // The address of the object'owner\r\n    bytes32 des;   // The description of the object\r\n    Status sta;   // The status of the object\r\n    uint price; // The hourly rental price of the object \r\n    uint deposit; // The deposit of the object\r\n    address renter; // The address of the object'renter\r\n    uint256 start; // The start time of renting\r\n    uint256 end; // The end time of renting\r\n  }\r\n\r\n  uint public numObjects; //The number of objects which have been registered\r\n  mapping (uint => Object) public objects;\r\n  \r\n  //Constructor\r\n  function Sharing() public {\r\n    numObjects = 0;\r\n  }\r\n\r\n  /* This function is used to register new object.\r\n     The function will be called by someone who want to share the object.\r\n */\r\n  function registerObject(bytes32 _objDes,uint _price,uint _deposit) public {\r\n\r\n    require(_deposit > _price*24);\r\n    objects[++numObjects] = Object(msg.sender,_objDes,Status.FORRENT,_price,_deposit,0x0,0,0);\r\n  }\r\n\r\n\r\n  /* This function is used to rent the object.\r\n     The function will be called by someone who want to rent the object.\r\n */\r\n  function rentObject(uint _objId) payable public {\r\n\r\n    //Judge whether the object can be rented\r\n    require(objects[_objId].sta == Status.FORRENT);\r\n    require(msg.value >= objects[_objId].deposit);\r\n\r\n    // add renter to object and store the current timestamp\r\n    objects[_objId].renter = msg.sender;\r\n    objects[_objId].start = now;\r\n\r\n    //Modify the object status\r\n    objects[_objId].sta = Status.RENTED;\r\n\r\n    // send back any excess ether\r\n    uint change = msg.value - objects[_objId].deposit;\r\n    require(objects[_objId].renter.send(change));\r\n    \r\n  }\r\n\r\n\r\n  /* This function is used to stop the sharing.\r\n     The function will be called by renter.\r\n     The sharing can stop when two sides agree.\r\n     If the renter call this function , it means that the renter agree to stop the sharing.\r\n     If the bicycle is locked and is parked in the right place, the owner will agree to stop the sharingby default.\r\n */\r\n  function finishSharing(uint _objId) public {\r\n    \r\n    //Determine whether the bike is locked and is parked in the right place.\r\n    //Judge the transaction'sender \r\n    //Now assume that the bike is locked and is parked in the right place.\r\n    require(msg.sender == objects[_objId].renter);\r\n\r\n    //Add the end time of renting\r\n    objects[_objId].end = now;\r\n    \r\n    //caculate the rental fee\r\n    //The system's time unit is seconds and the price unit is ether per hour.\r\n    //For testing convenience, assume the price unit is ether per minute.\r\n    uint fee = (objects[_objId].end - objects[_objId].start)/60*objects[_objId].price;\r\n\r\n    //send the rental fee to the owner\r\n    require(objects[_objId].owner.send(fee));\r\n    \r\n    //send the remaining deposit(less the rental fee)back to the renter.\r\n    //Because of the settlement mechanism, the deposit always greater than the fee.\r\n    require(objects[_objId].renter.send(objects[_objId].deposit - fee));\r\n\r\n    //Modify the object status\r\n    objects[_objId].sta = Status.FORRENT;\r\n\r\n    //delete the Info of the renter\r\n    objects[_objId].renter = 0x0;\r\n    objects[_objId].start = 0;\r\n    objects[_objId].end = 0;\r\n  }\r\n\r\n  /* This function is used to reclaim the object.\r\n     The function will be called by owner.\r\n     Only the object is not rented, it can be reclaimed by owner.\r\n */\r\n  function reclaimObject(uint _objId) public {\r\n    \r\n    //Judge the transaction'sender and the object status.\r\n    require(msg.sender == objects[_objId].owner);\r\n    require(objects[_objId].sta == Status.FORRENT);\r\n    \r\n    //Modify the object status\r\n    objects[_objId].sta = Status.NOTRENT;\r\n  }\r\n\r\n  /* This function is used to guarantee will not appear arrears, that is, the deposit is always greater than the fee.\r\n     The function will be called by system every day at 4 a.m.\r\n     The object whose status is RENTED nend to settlemnt.\r\n */\r\n  function settlement() public {\r\n     for(uint i=1;i<=numObjects;i++){\r\n       if(objects[i].sta == Status.RENTED){\r\n          \r\n          //Add the end time of renting\r\n          objects[i].end = now;\r\n    \r\n          //caculate the rental fee\r\n          //The system's time unit is seconds and the price unit is ether per hour.\r\n          //For testing convenience, assume the price unit is ether per minute.\r\n          uint fee = (objects[i].end - objects[i].start)/60*objects[i].price;\r\n\r\n          //send the rental fee to the owner\r\n          require(objects[i].owner.send(fee));\r\n    \r\n          //send the remaining deposit(less the rental fee)back to the renter.\r\n          //Because of the settlement mechanism, the deposit always greater than the fee.\r\n          require(objects[i].renter.send(objects[i].deposit - fee));\r\n\r\n          //Modify the object status\r\n          objects[i].sta = Status.FORRENT;\r\n\r\n          //delete the Info of the renter\r\n          objects[i].renter = 0x0;\r\n          objects[i].start = 0;\r\n          objects[i].end = 0;         \r\n      }\r\n    }\r\n  }\r\n\r\n  function getObjInfo(uint _objId) view public returns (bytes32,uint,uint,uint,uint256,uint256){\r\n    return (objects[_objId].des,uint(objects[_objId].sta),objects[_objId].price,objects[_objId].deposit,objects[_objId].start,objects[_objId].end);\r\n  }\r\n  \r\n  function getnumObjs() view public returns (uint){\r\n    return numObjects;\r\n  }\r\n\r\n}\r\n",
  "sourcePath": "/home/peahen/sharing/contracts/Sharing.sol",
  "compiler": {
    "name": "solc",
    "version": "0.4.19+commit.c4cbbb05.Emscripten.clang"
  },
  "schemaVersion": "1.0.1",
  "updatedAt": "2018-03-06T03:12:38.748Z"
}